{
    "contractName": "AccessControl",
    "abi": [
        {
            "inputs": [],
            "stateMutability": "nonpayable",
            "type": "constructor"
        },
        {
            "anonymous": false,
            "inputs": [
                {
                    "indexed": true,
                    "internalType": "bytes32",
                    "name": "role",
                    "type": "bytes32"
                },
                {
                    "indexed": true,
                    "internalType": "address",
                    "name": "account",
                    "type": "address"
                }
            ],
            "name": "GrantRole",
            "type": "event"
        },
        {
            "anonymous": false,
            "inputs": [
                {
                    "indexed": true,
                    "internalType": "bytes32",
                    "name": "role",
                    "type": "bytes32"
                },
                {
                    "indexed": true,
                    "internalType": "address",
                    "name": "account",
                    "type": "address"
                }
            ],
            "name": "RevokeRole",
            "type": "event"
        },
        {
            "inputs": [
                {
                    "internalType": "bytes32",
                    "name": "_role",
                    "type": "bytes32"
                },
                {
                    "internalType": "address",
                    "name": "_account",
                    "type": "address"
                }
            ],
            "name": "grantRole",
            "outputs": [],
            "stateMutability": "nonpayable",
            "type": "function"
        },
        {
            "inputs": [
                {
                    "internalType": "bytes32",
                    "name": "_role",
                    "type": "bytes32"
                },
                {
                    "internalType": "address",
                    "name": "_account",
                    "type": "address"
                }
            ],
            "name": "revokeRole",
            "outputs": [],
            "stateMutability": "nonpayable",
            "type": "function"
        },
        {
            "inputs": [
                {
                    "internalType": "bytes32",
                    "name": "",
                    "type": "bytes32"
                },
                {
                    "internalType": "address",
                    "name": "",
                    "type": "address"
                }
            ],
            "name": "roles",
            "outputs": [
                {
                    "internalType": "bool",
                    "name": "",
                    "type": "bool"
                }
            ],
            "stateMutability": "view",
            "type": "function"
        }
    ],
    "bytecode": "608060405234801561001057600080fd5b506040516420a226a4a760d91b602082015261004b90602501604051602081830303815290604052805190602001203361005060201b60201c565b6100a9565b6000828152602081815260408083206001600160a01b0385168085529252808320805460ff1916600117905551909184917f5a06360d65acf95e98445dc834f205063424c636e65418d928cdfabc33a953999190a35050565b6102d7806100b86000396000f3fe608060405234801561001057600080fd5b50600436106100415760003560e01c80632f2ff15d14610046578063d547741f1461005b578063f8fc08b91461006e575b600080fd5b610059610054366004610265565b6100ad565b005b610059610069366004610265565b61013b565b61009961007c366004610265565b600060208181529281526040808220909352908152205460ff1681565b604051901515815260200160405180910390f35b6040516420a226a4a760d91b602082015260250160408051601f198184030181529181528151602092830120600081815280845282812033825290935291205460ff1661012c5760405162461bcd60e51b81526020600482015260086024820152676e6f7420726f6c6560c01b60448201526064015b60405180910390fd5b610136838361020c565b505050565b6040516420a226a4a760d91b602082015260250160408051601f198184030181529181528151602092830120600081815280845282812033825290935291205460ff166101b55760405162461bcd60e51b81526020600482015260086024820152676e6f7420726f6c6560c01b6044820152606401610123565b6000838152602081815260408083206001600160a01b0386168085529252808320805460ff1916905551909185917f76e6093c136cd7faa5a6d92b2b633f3b4595abd4a529b7a13917398355fea6949190a3505050565b6000828152602081815260408083206001600160a01b0385168085529252808320805460ff1916600117905551909184917f5a06360d65acf95e98445dc834f205063424c636e65418d928cdfabc33a953999190a35050565b6000806040838503121561027857600080fd5b8235915060208301356001600160a01b038116811461029657600080fd5b80915050925092905056fea26469706673582212201938a10bd4db61098a1c440ed8709f4521e520044c601c64b2cffde54252c6cb64736f6c63430008130033",
    "sourcePath": "/Users/tianming/Documents/project/code/javascript/hard/contracts/AccessControl.sol",
    "compiler": {
        "name": "solc",
        "version": "0.8.19+commit.7dd6d404"
    },
    "functionHashes": {
        "grantRole(bytes32,address)": "2f2ff15d",
        "revokeRole(bytes32,address)": "d547741f",
        "roles(bytes32,address)": "f8fc08b9"
    },
    "gasEstimates": {
        "creation": {
            "codeDepositCost": "145400",
            "executionCost": "infinite",
            "totalCost": "infinite"
        },
        "external": {
            "grantRole(bytes32,address)": "28609",
            "revokeRole(bytes32,address)": "28591",
            "roles(bytes32,address)": "2603"
        },
        "internal": {
            "_grantRole(bytes32,address)": "25926"
        }
    }
}