{
    "contractName": "Call",
    "abi": [
        {
            "inputs": [
                {
                    "internalType": "address",
                    "name": "_test",
                    "type": "address"
                }
            ],
            "name": "callDoesNotExit",
            "outputs": [],
            "stateMutability": "nonpayable",
            "type": "function"
        },
        {
            "inputs": [
                {
                    "internalType": "address",
                    "name": "_test",
                    "type": "address"
                }
            ],
            "name": "callFoo",
            "outputs": [],
            "stateMutability": "payable",
            "type": "function"
        },
        {
            "inputs": [],
            "name": "data",
            "outputs": [
                {
                    "internalType": "bytes",
                    "name": "",
                    "type": "bytes"
                }
            ],
            "stateMutability": "view",
            "type": "function"
        }
    ],
    "bytecode": "608060405234801561001057600080fd5b50610536806100206000396000f3fe6080604052600436106100345760003560e01c806314c3ec881461003957806373d4a13a1461005b578063edcbe76c14610086575b600080fd5b34801561004557600080fd5b506100596100543660046102fe565b610099565b005b34801561006757600080fd5b50610070610165565b60405161007d9190610352565b60405180910390f35b6100596100943660046102fe565b6101f3565b60408051600481526024810182526020810180516001600160e01b0316630ee642d760e11b17905290516000916001600160a01b038416916100db9190610385565b6000604051808303816000865af19150503d8060008114610118576040519150601f19603f3d011682016040523d82523d6000602084013e61011d565b606091505b50509050806101615760405162461bcd60e51b815260206004820152600b60248201526a18d85b1b0819985a5b195960aa1b60448201526064015b60405180910390fd5b5050565b60008054610172906103a1565b80601f016020809104026020016040519081016040528092919081815260200182805461019e906103a1565b80156101eb5780601f106101c0576101008083540402835291602001916101eb565b820191906000526020600020905b8154815290600101906020018083116101ce57829003601f168201915b505050505081565b604080516024810191909152600960648201526863616c6c20666f6f6f60b81b6084820152607b604482015260009081906001600160a01b03841690606f9060a40160408051601f198184030181529181526020820180516001600160e01b031663fcc07fc360e01b1790525161026a9190610385565b60006040518083038185875af1925050503d80600081146102a7576040519150601f19603f3d011682016040523d82523d6000602084013e6102ac565b606091505b5091509150816102ec5760405162461bcd60e51b815260206004820152600b60248201526a18d85b1b0819985a5b195960aa1b6044820152606401610158565b60006102f88282610440565b50505050565b60006020828403121561031057600080fd5b81356001600160a01b038116811461032757600080fd5b9392505050565b60005b83811015610349578181015183820152602001610331565b50506000910152565b602081526000825180602084015261037181604085016020870161032e565b601f01601f19169190910160400192915050565b6000825161039781846020870161032e565b9190910192915050565b600181811c908216806103b557607f821691505b6020821081036103d557634e487b7160e01b600052602260045260246000fd5b50919050565b634e487b7160e01b600052604160045260246000fd5b601f82111561043b57600081815260208120601f850160051c810160208610156104185750805b601f850160051c820191505b8181101561043757828155600101610424565b5050505b505050565b815167ffffffffffffffff81111561045a5761045a6103db565b61046e8161046884546103a1565b846103f1565b602080601f8311600181146104a3576000841561048b5750858301515b600019600386901b1c1916600185901b178555610437565b600085815260208120601f198616915b828110156104d2578886015182559484019460019091019084016104b3565b50858210156104f05787850151600019600388901b60f8161c191681555b5050505050600190811b0190555056fea2646970667358221220c342a94d5d84c43b6a955239d55665935010579adf8e19550478136aa32db67a64736f6c63430008130033",
    "sourcePath": "/Users/tianming/Documents/project/code/javascript/hard/contracts/Payable.sol",
    "compiler": {
        "name": "solc",
        "version": "0.8.19+commit.7dd6d404"
    },
    "functionHashes": {
        "callDoesNotExit(address)": "14c3ec88",
        "callFoo(address)": "edcbe76c",
        "data()": "73d4a13a"
    },
    "gasEstimates": {
        "creation": {
            "codeDepositCost": "266800",
            "executionCost": "306",
            "totalCost": "267106"
        },
        "external": {
            "callDoesNotExit(address)": "infinite",
            "callFoo(address)": "infinite",
            "data()": "infinite"
        }
    }
}