{
    "contractName": "Kill",
    "abi": [
        {
            "inputs": [],
            "stateMutability": "payable",
            "type": "constructor"
        },
        {
            "inputs": [],
            "name": "kill",
            "outputs": [],
            "stateMutability": "nonpayable",
            "type": "function"
        },
        {
            "inputs": [],
            "name": "testCall",
            "outputs": [
                {
                    "internalType": "uint256",
                    "name": "",
                    "type": "uint256"
                }
            ],
            "stateMutability": "pure",
            "type": "function"
        }
    ],
    "bytecode": "608060405260888060116000396000f3fe6080604052348015600f57600080fd5b506004361060325760003560e01c806341c0e1b5146037578063b7f0583614603e575b600080fd5b603c33ff5b005b607b60405190815260200160405180910390f3fea26469706673582212207190782148d211e472762d623d687b33ceaaf93a9109fd3bfd0aa0fa0ea39ca664736f6c63430008130033",
    "sourcePath": "/Users/tianming/Documents/project/code/javascript/hard/contracts/Kill.sol",
    "compiler": {
        "name": "solc",
        "version": "0.8.19+commit.7dd6d404"
    },
    "functionHashes": {
        "kill()": "41c0e1b5",
        "testCall()": "b7f05836"
    },
    "gasEstimates": {
        "creation": {
            "codeDepositCost": "27200",
            "executionCost": "57",
            "totalCost": "27257"
        },
        "external": {
            "kill()": "27703",
            "testCall()": "168"
        }
    }
}