{
    "contractName": "VerifySig",
    "abi": [
        {
            "inputs": [
                {
                    "internalType": "bytes32",
                    "name": "_messageHash",
                    "type": "bytes32"
                }
            ],
            "name": "getEthSignedMessageHash",
            "outputs": [
                {
                    "internalType": "bytes32",
                    "name": "",
                    "type": "bytes32"
                }
            ],
            "stateMutability": "pure",
            "type": "function"
        },
        {
            "inputs": [
                {
                    "internalType": "string",
                    "name": "_message",
                    "type": "string"
                }
            ],
            "name": "getMessageHash",
            "outputs": [
                {
                    "internalType": "bytes32",
                    "name": "",
                    "type": "bytes32"
                }
            ],
            "stateMutability": "pure",
            "type": "function"
        },
        {
            "inputs": [
                {
                    "internalType": "bytes32",
                    "name": "_ethSignedMessageHash",
                    "type": "bytes32"
                },
                {
                    "internalType": "bytes",
                    "name": "_sig",
                    "type": "bytes"
                }
            ],
            "name": "recover",
            "outputs": [
                {
                    "internalType": "address",
                    "name": "",
                    "type": "address"
                }
            ],
            "stateMutability": "pure",
            "type": "function"
        },
        {
            "inputs": [
                {
                    "internalType": "address",
                    "name": "_signer",
                    "type": "address"
                },
                {
                    "internalType": "string",
                    "name": "_message",
                    "type": "string"
                },
                {
                    "internalType": "bytes",
                    "name": "_sig",
                    "type": "bytes"
                }
            ],
            "name": "verify",
            "outputs": [
                {
                    "internalType": "bool",
                    "name": "",
                    "type": "bool"
                }
            ],
            "stateMutability": "pure",
            "type": "function"
        }
    ],
    "bytecode": "608060405234801561001057600080fd5b506104a4806100206000396000f3fe608060405234801561001057600080fd5b506004361061004c5760003560e01c806319045a25146100515780632dd34f0f14610081578063b446f3b2146100a4578063fa540801146100c5575b600080fd5b61006461005f366004610320565b6100d8565b6040516001600160a01b0390911681526020015b60405180910390f35b61009461008f366004610367565b610157565b6040519015158152602001610078565b6100b76100b23660046103e9565b61019a565b604051908152602001610078565b6100b76100d3366004610426565b6101ca565b6000806000806100e785610205565b6040805160008152602081018083528b905260ff8316918101919091526060810184905260808101839052929550909350915060019060a0016020604051602081039080840390855afa158015610142573d6000803e3d6000fd5b5050604051601f190151979650505050505050565b6000806101638461019a565b90506000610170826101ca565b9050856001600160a01b031661018682866100d8565b6001600160a01b0316149695505050505050565b6000816040516020016101ad919061043f565b604051602081830303815290604052805190602001209050919050565b6040517f19457468657265756d205369676e6564204d6573736167653a200a33320000006020820152603d8101829052600090605d016101ad565b6000806000835160411461025f5760405162461bcd60e51b815260206004820152601960248201527f20696e76616c6964207369676e6174757265206c656e67746800000000000000604482015260640160405180910390fd5b50505060208101516040820151606090920151909260009190911a90565b634e487b7160e01b600052604160045260246000fd5b600082601f8301126102a457600080fd5b813567ffffffffffffffff808211156102bf576102bf61027d565b604051601f8301601f19908116603f011681019082821181831017156102e7576102e761027d565b8160405283815286602085880101111561030057600080fd5b836020870160208301376000602085830101528094505050505092915050565b6000806040838503121561033357600080fd5b82359150602083013567ffffffffffffffff81111561035157600080fd5b61035d85828601610293565b9150509250929050565b60008060006060848603121561037c57600080fd5b83356001600160a01b038116811461039357600080fd5b9250602084013567ffffffffffffffff808211156103b057600080fd5b6103bc87838801610293565b935060408601359150808211156103d257600080fd5b506103df86828701610293565b9150509250925092565b6000602082840312156103fb57600080fd5b813567ffffffffffffffff81111561041257600080fd5b61041e84828501610293565b949350505050565b60006020828403121561043857600080fd5b5035919050565b6000825160005b818110156104605760208186018101518583015201610446565b50600092019182525091905056fea2646970667358221220c77ea9e4e0193e9cbfaeca923ba3f9dfd623bd8874a81b6571fe88d27c054a2664736f6c63430008130033",
    "sourcePath": "/Users/tianming/Documents/project/code/javascript/hard/contracts/Sign.sol",
    "compiler": {
        "name": "solc",
        "version": "0.8.19+commit.7dd6d404"
    },
    "functionHashes": {
        "getEthSignedMessageHash(bytes32)": "fa540801",
        "getMessageHash(string)": "b446f3b2",
        "recover(bytes32,bytes)": "19045a25",
        "verify(address,string,bytes)": "2dd34f0f"
    },
    "gasEstimates": {
        "creation": {
            "codeDepositCost": "237600",
            "executionCost": "281",
            "totalCost": "237881"
        },
        "external": {
            "getEthSignedMessageHash(bytes32)": "500",
            "getMessageHash(string)": "infinite",
            "recover(bytes32,bytes)": "infinite",
            "verify(address,string,bytes)": "infinite"
        },
        "internal": {
            "_split(bytes memory)": "infinite"
        }
    }
}